:100000000C9435000C945D000C945D000C945D0024
:100010000C945D000C945D000C945D000C945D00EC
:100020000C945D000C945D000C945D000C945D00DC
:100030000C945D000C945D000C945D000C945D00CC
:100040000C9493020C945D000C9403030C94DD0259
:100050000C945D000C945D000C945D000C945D00AC
:100060000C945D000C945D00E90311241FBECFEFDA
:10007000D8E0DEBFCDBF21E0A6E1B1E001C01D9216
:10008000AC3BB207E1F711E0A0E0B1E0ECE1F9E050
:1000900002C005900D92A631B107D9F710E0C5E373
:1000A000D0E004C02197FE010E948104C433D1072F
:1000B000C9F70E9435030C948C040C940000CF9275
:1000C000DF92EF92FF920F931F93CF93DF936C0118
:1000D0007A018B01C0E0D0E0CE15DF0581F0D801B8
:1000E0006D918D01D601ED91FC910190F081E02D93
:1000F000C6010995892B11F02196EECF7E01C7012B
:10010000DF91CF911F910F91FF90EF90DF90CF90F3
:100110000895089580E090E00895FC01538D448D8A
:10012000252F30E0842F90E0821B930B541710F0A2
:10013000CF96089501970895FC01918D828D9817AF
:1001400061F0828DDF01A80FB11D5D968C91928DBB
:100150009F5F9F73928F90E008958FEF9FEF0895B8
:10016000FC01918D828D981731F0828DE80FF11D81
:10017000858D90E008958FEF9FEF08952FB7F89445
:1001800080911B0190911C01A0911D01B0911E0155
:100190002FBF8093270190932801A0932901B0934A
:1001A0002A018FE191E00E94B00097FF26C02FB78F
:1001B000F89480911B0190911C01A0911D01B091B8
:1001C0001E012FBF40912701509128016091290104
:1001D00070912A01841B950BA60BB70B409123014C
:1001E0005091240160912501709126018417950793
:1001F000A607B707B0F28FEF9FEF0895CF92DF9277
:10020000EF92FF92CF930E94BE00FC0197FD0BC0BE
:100210008D32910561F0C0970A9748F08FE191E027
:100220000E949C00F0CF60E070E0CB0140C0C12C88
:10023000D12C7601C0E0E130F10501F1ED32F1059C
:10024000E1F0CF01C0970A97C8F4AAE0B0E0A70197
:1002500096010E9416046F01FF0FEE08FF08DC01F3
:10026000CB018C0D9D1DAE1DBF1D6C017D0120E3DA
:10027000C21AD108E108F10801C0C1E08FE191E0A4
:100280000E949C000E94BE00FC01C0970A9798F251
:10029000E130F10581F2CC2341F066277727CB01CD
:1002A0006C197D098E099F0902C0C701B601CF9163
:1002B000FF90EF90DF90CF900895FC01918D228DFB
:1002C000892F90E0805C9F4F821B91098F73992743
:1002D00008958FE191E00E945D0121E0892B09F4EE
:1002E00020E0822F0895FC01848DDF01A80FB11D4D
:1002F000A35ABF4F2C91848D90E001968F7399275C
:10030000848FA689B7892C93A089B1898C91837039
:1003100080648C93938D848D981306C00288F38932
:10032000E02D80818F7D80830895EF92FF920F935F
:100330001F93CF93DF93EC0181E0888F9B8D8C8D91
:10034000981305C0E889F989808185FD26C0F62EBD
:100350000B8D10E00F5F1F4F0F731127E02E8C8D58
:10036000E8120CC00FB607FCFACFE889F989808142
:1003700085FFF5CFCE010E947301F1CF8B8DFE0179
:10038000E80FF11DE35AFF4FF0829FB7F8940B8FEF
:10039000EA89FB89808180620AC09FB7F894EE8960
:1003A000FF896083E889F989808183708064808314
:1003B0009FBF81E090E0DF91CF911F910F91FF905F
:1003C000EF900895CF93DF93EC01888D8823C9F0D7
:1003D000EA89FB89808185FD05C0A889B9898C914E
:1003E00086FD0FC00FB607FCF5CF808185FFF2CFE9
:1003F000A889B9898C9185FFEDCFCE010E94730148
:10040000E7CFDF91CF91089580E090E0892B29F02C
:100410000E94690181110C94000008958F929F92AF
:10042000AF92BF920F931F93CF93DF93CDB7DEB7F9
:10043000A1970FB6F894DEBF0FBECDBF19A2423010
:1004400008F44AE08E010F5D1F4F842E912CA12CE1
:10045000B12CA50194010E944004E62FB901CA0104
:1004600001501109EA3014F4E05D01C0E95CD801E3
:10047000EC93232B242B252B61F70115110571F02B
:10048000F80101900020E9F73197AF01401B510BB3
:10049000B8018FE191E00E945F0002C080E090E02F
:1004A000A1960FB6F894DEBF0FBECDBFDF91CF91FE
:1004B0001F910F91BF90AF909F908F900895CF9212
:1004C000DF92EF92FF92CF93DF936B017C0197FF56
:1004D00013C06DE28FE191E00E949501EC01662767
:1004E0007727CB016C197D098E099F094AE00E948C
:1004F0000E02C80FD91F04C04AE00E940E02EC0190
:1005000042E050E062E171E08FE191E00E945F0023
:100510008C0F9D1FDF91CF91FF90EF90DF90CF90D8
:1005200008950E9487041F920F920FB60F92112414
:100530002F933F938F939F93AF93BF9380911B0112
:1005400090911C01A0911D01B0911E0130911A01E2
:1005500023E0230F2D3720F40196A11DB11D05C006
:1005600026E8230F0296A11DB11D20931A01809346
:100570001B0190931C01A0931D01B0931E0180915B
:10058000160190911701A0911801B09119010196DF
:10059000A11DB11D8093160190931701A09318011E
:1005A000B0931901BF91AF919F918F913F912F917E
:1005B0000F900FBE0F901F9018951F920F920FB6BD
:1005C0000F9211242F933F934F935F936F937F93D9
:1005D0008F939F93AF93BF93EF93FF938FE191E03E
:1005E0000E947301FF91EF91BF91AF919F918F9105
:1005F0007F916F915F914F913F912F910F900FBE1F
:100600000F901F9018951F920F920FB60F92112402
:100610002F938F939F93EF93FF93E0912F01F0918E
:1006200030018081E0913501F091360182FD12C0E8
:100630009081809138018F5F8F73209139018217EB
:1006400051F0E0913801F0E0E15EFE4F958F80932C
:10065000380101C08081FF91EF919F918F912F917F
:100660000F900FBE0F901F901895789484B58260FC
:1006700084BD84B5816084BD85B5826085BD85B546
:10068000816085BD80916E00816080936E001092C4
:10069000810080918100826080938100809181003F
:1006A00081608093810080918000816080938000D0
:1006B0008091B10084608093B1008091B00081602E
:1006C0008093B00080917A00846080937A0080915A
:1006D0007A00826080937A0080917A0081608093B2
:1006E0007A0080917A00806880937A001092C1002D
:1006F000E0912F01F091300182E08083E0912B01A5
:10070000F0912C011082E0912D01F0912E018FECDF
:10071000808310923701E0913301F091340186E03B
:100720008083E0913101F09132018081806180838A
:10073000E0913101F0913201808188608083E09105
:100740003101F0913201808180688083E091310134
:10075000F091320180818F7D80838FE191E00E9452
:100760005D0105979CF58FE191E00E949C00C82FE8
:100770000E94FE004B015C010E94FE006B017C01A7
:10078000C434D1F04CF4C13409F5C501B4016C0D89
:100790007D1D8E1D9F1D18C0CD3449F0C335B1F4A9
:1007A000C501B4016C197D098E099F090DC0A50111
:1007B00094010E94300408C0C501B401A70196014C
:1007C0000E946204CA01B9010E945F020E940402F1
:1007D000C4CFEFE1F1E01382128288EE93E0A0E053
:1007E000B0E084839583A683B78384E091E091830E
:1007F000808385EC90E09587848784EC90E09787F0
:10080000868780EC90E0918B808B81EC90E0938BDD
:10081000828B82EC90E0958B848B86EC90E0978BBA
:10082000868B118E128E138E148E08950E942104D1
:10083000A59F900DB49F900DA49F800D911D112434
:100840000895A29FB001B39FC001A39F700D811DA9
:100850001124911DB29F700D811D1124911D0895C9
:10086000DB018F939F930E941604BF91AF91A29FCB
:10087000800D911DA39F900DB29F900D112408959E
:10088000A1E21A2EAA1BBB1BFD010DC0AA1FBB1F94
:10089000EE1FFF1FA217B307E407F50720F0A21B06
:1008A000B30BE40BF50B661F771F881F991F1A9473
:1008B00069F760957095809590959B01AC01BD019D
:1008C000CF010895052E97FB1EF400940E94790431
:1008D00057FD07D00E94400407FC03D04EF40C944F
:1008E000790450954095309521953F4F4F4F5F4F7C
:1008F000089590958095709561957F4F8F4F9F4F8C
:100900000895EE0FFF1F0590F491E02D099481E00A
:0C09100090E0F8940C948C04F894FFCF55
:10091C000000000095015F008D00E2015D019C006C
:06092C00B0000D0A0000FE
:00000001FF
