:100000000C9462000C945A030C9433030C948A00F1
:100010000C948A000C948A000C948A000C948A0038
:100020000C948A000C948A000C948A000C948A0028
:100030000C948A000C948A000C948A000C948A0018
:100040000C94E9020C948A000C94A7030C9481038D
:100050000C948A000C948A000C948A000C948A00F8
:100060000C948A000C948A000000000023002600F3
:10007000290000000008000201000003040700003E
:1000800000000000000000000000250028002B00F8
:1000900000000000240027002A00040404040404D3
:1000A0000404020202020202030303030303010227
:1000B00004081020408001020408102001020408F6
:1000C0001020990611241FBECFEFD8E0DEBFCDBFB0
:1000D00011E0A0E0B1E0E6EAFDE002C005900D927B
:1000E000A034B107D9F721E0A0E4B1E001C01D922E
:1000F000A73EB207E1F710E0C2E6D0E004C02197C6
:10010000FE010E94C606C136D107C9F70E94D90375
:100110000C94D1060C94000090E0FC01E255FF4FD6
:100120002491FC01E656FF4F8491882399F090E0DA
:10013000880F991FFC01E057FF4FA591B491FC0176
:10014000EA57FF4F859194918FB7F894EC91E22B89
:10015000EC938FBF0895833081F028F4813099F0BB
:100160008230A1F008958730A9F08830B9F084304A
:10017000D1F4809180008F7D03C0809180008F77C3
:1001800080938000089584B58F7702C084B58F7DF9
:1001900084BD08958091B0008F7703C08091B00036
:1001A0008F7D8093B00008951F93CF93DF93282F06
:1001B00030E0F901EE58FF4F8491F901E255FF4F0D
:1001C000D491F901E656FF4FC491CC23C1F0162F0C
:1001D00081110E94AB00EC2FF0E0EE0FFF1FEA57F9
:1001E000FF4FA591B4919FB7F894111104C08C9161
:1001F000D095D82302C0EC91DE2BDC939FBFDF911A
:10020000CF911F9108951F93CF93DF93182FEB0188
:100210000E948C00209711F460E004C0CF3FD1050C
:1002200039F461E0812FDF91CF911F910C94D400BC
:10023000E12FF0E0EE58FF4FE491E330F9F048F49D
:10024000E130B9F0E230A1F584B5806284BDC8BD6B
:1002500034C0E730E9F0E83019F1E43049F5809135
:100260008000806280938000D0938B00C0938A00CE
:1002700024C084B5806884BDC7BD1FC08091800044
:10028000806880938000D0938900C093880015C057
:100290008091B00080688093B000C093B3000DC01F
:1002A0008091B00080628093B000C093B40005C01C
:1002B000C038D1050CF0B5CFAFCFDF91CF911F91F2
:1002C00008953FB7F8948091460190914701A0911D
:1002D0004801B091490126B5A89B05C02F3F19F0F0
:1002E0000196A11DB11D3FBFBA2FA92F982F8827B6
:1002F000820F911DA11DB11DBC01CD0142E0660F11
:10030000771F881F991F4A95D1F708952FB7F89442
:1003100060914201709143018091440190914501A7
:100320002FBF08950895CF92DF92EF92FF920F931F
:100330001F93CF93DF936C017A018B01C0E0D0E073
:10034000CE15DF0581F0D8016D918D01D601ED91BB
:10035000FC910190F081E02DC6010995892B11F0E7
:100360002196EECF7E01C701DF91CF911F910F91B2
:10037000FF90EF90DF90CF900895089580E090E097
:100380000895FC01538D448D252F30E0842F90E09B
:10039000821B930B541710F0CF9608950197089580
:1003A000FC01918D828D981761F0828DDF01A80F7D
:1003B000B11D5D968C91928D9F5F9F73928F90E09F
:1003C00008958FEF9FEF0895FC01918D828D98170E
:1003D00031F0828DE80FF11D858D90E008958FEF4B
:1003E0009FEF0895FC01918D228D892F90E0805C14
:1003F0009F4F821B91098F73992708958AE491E09A
:100400000E94F20121E0892B09F420E0822F089557
:10041000FC01848DDF01A80FB11DA35ABF4F2C91A1
:10042000848D90E001968F739927848FA689B78970
:100430002C93A089B1898C91837080648C93938D67
:10044000848D981306C00288F389E02D80818F7D0A
:1004500080830895EF92FF920F931F93CF93DF93C2
:10046000EC0181E0888F9B8D8C8D981305C0E88905
:10047000F989808185FD26C0F62E0B8D10E00F5F77
:100480001F4F0F731127E02E8C8DE8120CC00FB692
:1004900007FCFACFE889F989808185FFF5CFCE0185
:1004A0000E940802F1CF8B8DFE01E80FF11DE35A87
:1004B000FF4FF0829FB7F8940B8FEA89FB89808108
:1004C00080620AC09FB7F894EE89FF896083E8894B
:1004D000F98980818370806480839FBF81E090E090
:1004E000DF91CF911F910F91FF90EF900895CF93DF
:1004F000DF93EC01888D8823C9F0EA89FB8980812C
:1005000085FD05C0A889B9898C9186FD0FC00FB6FD
:1005100007FCF5CF808185FFF2CFA889B9898C913E
:1005200085FFEDCFCE010E940802E7CFDF91CF918A
:10053000089580E090E0892B29F00E94FE0181114E
:100540000C9400000895CF93DF93E4E7F0E08491EA
:10055000E0EBF0E0D491ECE9F0E0C491CC2379F049
:1005600081110E94AB00EC2FF0E0EE0FFF1FE85965
:10057000FF4FA591B491EC91ED2381E009F480E067
:1005800080934001DF91CF910895CF93DF9300973F
:1005900079F0FC0101900020E9F73197AF01481B89
:1005A000590BBC018AE491E00E949301EC0102C066
:1005B000C0E0D0E042E050E062E271E08AE491E025
:1005C0000E9493018C0F9D1FDF91CF9108950E948F
:1005D000CC061F920F920FB60F9211242F933F93C8
:1005E0008F939F93AF93BF9380914201909143016A
:1005F000A0914401B09145013091410123E0230FC6
:100600002D3720F40196A11DB11D05C026E8230F4A
:100610000296A11DB11D2093410180934201909348
:100620004301A0934401B09345018091460190910C
:100630004701A0914801B09149010196A11DB11D4A
:100640008093460190934701A0934801B0934901DC
:10065000BF91AF919F918F913F912F910F900FBEBE
:100660000F901F9018951F920F920FB60F921124A2
:100670002F933F934F935F936F937F938F939F93AA
:10068000AF93BF93EF93FF93E0910201F0910301C9
:100690000995FF91EF91BF91AF919F918F917F91BC
:1006A0006F915F914F913F912F910F900FBE0F90DF
:1006B0001F9018951F920F920FB60F9211242F932F
:1006C0003F934F935F936F937F938F939F93AF93DA
:1006D000BF93EF93FF93E0910001F0910101099521
:1006E000FF91EF91BF91AF919F918F917F916F910A
:1006F0005F914F913F912F910F900FBE0F901F90E0
:1007000018951F920F920FB60F9211242F933F93BB
:100710004F935F936F937F938F939F93AF93BF9309
:10072000EF93FF938AE491E00E940802FF91EF911A
:10073000BF91AF919F918F917F916F915F914F91F9
:100740003F912F910F900FBE0F901F9018951F9201
:100750000F920FB60F9211242F938F939F93EF93C5
:10076000FF93E0915A01F0915B018081E09160017B
:10077000F091610182FD12C09081809163018F5FD1
:100780008F7320916401821751F0E0916301F0E0D2
:10079000E65BFE4F958F8093630101C08081FF91DE
:1007A000EF919F918F912F910F900FBE0F901F90FF
:1007B0001895CF93DF93CDB7DEB729970FB6F8948E
:1007C000DEBF0FBECDBF789484B5826084BD84B592
:1007D000816084BD85B5826085BD85B5816085BD3C
:1007E00080916E00816080936E00109281008091F4
:1007F000810082608093810080918100816080937C
:100800008100809180008160809380008091B100A0
:1008100084608093B1008091B00081608093B000CB
:1008200080917A00846080937A0080917A0082605F
:1008300080937A0080917A00816080937A00809121
:100840007A00806880937A001092C10083E00E9451
:100850008C0060E083E00E94D40085E00E948C0060
:1008600060E085E00E94D40084E00E948C0060E09B
:1008700084E00E94D40009E111E0D801FD908D01CF
:100880008F2D0E948C0060E08F2D0E94D400B1E07B
:100890000C311B0791F7E0915A01F0915B0182E066
:1008A0008083E0915601F09157011082E091580148
:1008B000F09159018FEC808310926201E0915E010A
:1008C000F0915F0186E08083E0915C01F0915D0131
:1008D000808180618083E0915C01F0915D01808185
:1008E00088608083E0915C01F0915D018081806887
:1008F0008083E0915C01F0915D0180818F7D808338
:100900000E9461014B015C0184E6C82ED12CE12CD0
:10091000F12C0E946101DC01CB0188199909AA0917
:10092000BB09883E9340A105B10598F3E1E0CE1ADA
:10093000D108E108F108F8EE8F0EF3E09F1EA11C2C
:10094000B11CC114D104E104F10419F783EA92E067
:100950009093010180930001809169008C7F8160F8
:1009600080936900E89A0E9486016D837E838F835D
:1009700098870E9486016B017C0185E291E00E94CC
:10098000C50260E083E00E94D40060E085E00E9440
:10099000D40061E084E00E94D40061E088E00E941D
:1009A000D40060E089E00E94D40060E08AE00E9408
:1009B000D40061E086E00E94D40060E087E00E94FD
:1009C000D40060E08BE00E94D40061E08CE00E94E3
:1009D000D400412C512C3201812C912C54011982CC
:1009E0001A821B821C8280914001811118C041141F
:1009F00051046104710499F4C114D104E104F104B7
:100A000071F00E948601DC01CB018C199D09AE09B1
:100A1000BF0980379741A105B10508F076C08091E4
:100A2000400181111FC0C114D104E104F104D1F4CB
:100A300089819A81AB81BC81892B8A2B8B2B91F088
:100A40000E948601DC01CB0129813A814B815C81C6
:100A5000821B930BA40BB50B883E9340A105B105F7
:100A600008F089C08091400181111BC089819A8161
:100A7000AB81BC81892B8A2B8B2B99F48114910437
:100A8000A104B10471F00E948601DC01CB01881938
:100A90009909AA09BB09883B9B40A105B10508F04B
:100AA0009FC080914001811118C081149104A1045C
:100AB000B10499F4411451046104710471F00E946D
:100AC0008601DC01CB0184199509A609B709883E86
:100AD0009340A105B10508F0B7C080914001813075
:100AE00009F081CF0E948601DC01CB012D813E817E
:100AF0004F815885821B930BA40BB50B893E934005
:100B0000A105B10508F0D4C06ECF0E9486016983AB
:100B10007A838B839C838BE291E00E94C50260E024
:100B200083E00E94D40061E085E00E94D40060E090
:100B300084E00E94D40061E088E00E94D40060E07C
:100B400089E00E94D40060E08AE00E94D40061E065
:100B500086E00E94D40060E087E00E94D40060E05C
:100B60008BE00E94D40061E08CE00E94D400C12C94
:100B7000D12C760154CF0E9486014B015C0182E3A7
:100B800091E00E94C50261E083E00E94D40060E031
:100B900085E00E94D40060E084E00E94D40060E020
:100BA00088E00E94D40060E089E00E94D40061E007
:100BB0008AE00E94D40060E086E00E94D40061E0F8
:100BC00087E00E94D40061E08BE00E94D40060E0E6
:100BD0008CE00E94D40019821A821B821C8242CFB0
:100BE0000E9486012B013C0188E391E00E94C5022E
:100BF00061E083E00E94D40060E085E00E94D400C0
:100C000060E084E00E94D40060E088E00E94D400AC
:100C100061E089E00E94D40060E08AE00E94D40094
:100C200060E086E00E94D40061E087E00E94D4008A
:100C300061E08BE00E94D40060E08CE00E94D40070
:100C4000812C912C54012DCF0E9486016B017C01D7
:100C500085E291E00E94C50260E083E00E94D4003A
:100C600060E085E00E94D40061E084E00E94D4004E
:100C700061E088E00E94D40060E089E00E94D40036
:100C800060E08AE00E94D40061E086E00E94D40027
:100C900060E087E00E94D40060E08BE00E94D40016
:100CA00061E08CE00E94D400412C512C320115CF20
:100CB0000E9486016D837E838F83988760E083E046
:100CC0000E94D40060E084E00E94D40060E088E0EC
:100CD0000E94D40060E08AE00E94D40060E086E0D8
:100CE0000E94D40060E087E00E94D40060E08BE0C6
:100CF0000E94D40060E08CE00E94D40089858823A3
:100D0000A9F06FE770E085E00E9403014985411179
:100D100003C060E070E002C06FE770E089E00E940D
:100D2000030181E05985582759875DCE60E070E066
:100D3000EACFEAE4F1E01382128288EE93E0A0E0C9
:100D4000B0E084839583A683B78388E091E09183A4
:100D5000808385EC90E09587848784EC90E097878A
:100D6000868780EC90E0918B808B81EC90E0938B78
:100D7000828B82EC90E0958B848B86EC90E0978B55
:100D8000868B118E128E138E148E0895EE0FFF1F18
:100D90000590F491E02D099481E090E0F8940C9492
:060DA000D106F894FFCF1C
:100DA60092019201000000002A029301C10177021C
:100DB600F201D001E40103050408090A06FF070B46
:100DC600FF0C0D0A004669727374005365636F6EFB
:100DD6006400546869726400466F75727468000036
:00000001FF
