:100000000C9462000C9497020C9470020C948A0079
:100010000C948A000C948A000C948A000C948A0038
:100020000C948A000C948A000C948A000C948A0028
:100030000C948A000C948A000C948A000C948A0018
:100040000C9426020C948A000C94E4020C94BE02D8
:100050000C948A000C948A000C948A000C948A00F8
:100060000C948A000C948A000000000024002700F1
:100070002A0000000000250028002B0000000000DE
:1000800023002600290004040404040404040202DA
:100090000202020203030303030301020408102007
:1000A0004080010204081020010204081020000012
:1000B0000008000201000003040700000000000027
:1000C0000000160311241FBECFEFD8E0DEBFCDBF66
:1000D00011E0A0E0B1E0E6E2FAE002C005900D9286
:1000E000AA31B107D9F721E0AAE1B1E001C01D9220
:1000F000AC3CB207E1F710E0C2E6D0E004C02197C3
:10010000FE010E94F704C136D107C9F70E945603C9
:100110000C9411050C940000833081F028F4813098
:1001200099F08230A1F008958730A9F08830B9F0B5
:100130008430D1F4809180008F7D03C08091800055
:100140008F7780938000089584B58F7702C084B53F
:100150008F7D84BD08958091B0008F7703C080911A
:10016000B0008F7D8093B00008953FB7F8948091E0
:10017000230190912401A0912501B091260126B57B
:10018000A89B05C02F3F19F00196A11DB11D3FBFCF
:10019000BA2FA92F982F8827820F911DA11DB11D5D
:1001A000BC01CD0142E0660F771F881F991F4A9559
:1001B000D1F708950895CF92DF92EF92FF920F93B7
:1001C0001F93CF93DF936C017A018B01C0E0D0E0E5
:1001D000CE15DF0581F0D8016D918D01D601ED912D
:1001E000FC910190F081E02DC6010995892B11F059
:1001F0002196EECF7E01C701DF91CF911F910F9124
:10020000FF90EF90DF90CF900895089580E090E008
:100210000895FC01538D448D252F30E0842F90E00C
:10022000821B930B541710F0CF96089501970895F1
:10023000FC01918D828D981761F0828DDF01A80FEE
:10024000B11D5D968C91928D9F5F9F73928F90E010
:1002500008958FEF9FEF0895FC01918D828D98177F
:1002600031F0828DE80FF11D858D90E008958FEFBC
:100270009FEF0895FC01918D228D892F90E0805C85
:100280009F4F821B91098F739927089587E291E010
:100290000E943A0121E0892B09F420E0822F089581
:1002A000FC01848DDF01A80FB11DA35ABF4F2C9113
:1002B000848D90E001968F739927848FA689B789E2
:1002C0002C93A089B1898C91837080648C93938DD9
:1002D000848D981306C00288F389E02D80818F7D7C
:1002E00080830895EF92FF920F931F93CF93DF9334
:1002F000EC0181E0888F9B8D8C8D981305C0E88977
:10030000F989808185FD26C0F62E0B8D10E00F5FE8
:100310001F4F0F731127E02E8C8DE8120CC00FB603
:1003200007FCFACFE889F989808185FFF5CFCE01F6
:100330000E945001F1CF8B8DFE01E80FF11DE35AB1
:10034000FF4FF0829FB7F8940B8FEA89FB89808179
:1003500080620AC09FB7F894EE89FF896083E889BC
:10036000F98980818370806480839FBF81E090E001
:10037000DF91CF911F910F91FF90EF900895CF9350
:10038000DF93EC01888D8823C9F0EA89FB8980819D
:1003900085FD05C0A889B9898C9186FD0FC00FB66F
:1003A00007FCF5CF808185FFF2CFA889B9898C91B0
:1003B00085FFEDCFCE010E945001E7CFDF91CF91B5
:1003C000089580E090E0892B29F00E944601811178
:1003D0000C940000089580E480937C0080917A0062
:1003E000806480937A0080917A0086FDFCCF8091B2
:1003F00078002091790090E0922B092E000CAA0B36
:10040000BB0B80931A0190931B01A0931C01B09326
:100410001D0120911A0130911B0140911C01509146
:100420001D01A8E8B3E10E94EC042FEF33E040E0A7
:1004300050E00E94CA0420931A0130931B0140939C
:100440001C0150931D0108950E940C051F920F92EC
:100450000FB60F9211242F933F938F939F93AF93D7
:10046000BF938091C4019091C501A091C601B09144
:10047000C7013091220123E0230F2D3720F401968C
:10048000A11DB11D05C026E8230F0296A11DB11DB7
:10049000209322018093C4019093C501A093C601CB
:1004A000B093C7018091230190912401A09125016F
:1004B000B09126010196A11DB11D80932301909357
:1004C0002401A0932501B0932601BF91AF919F9184
:1004D0008F913F912F910F900FBE0F901F90189505
:1004E0001F920F920FB60F9211242F933F934F93A9
:1004F0005F936F937F938F939F93AF93BF93EF938C
:10050000FF93E0910201F09103010995FF91EF91B2
:10051000BF91AF919F918F917F916F915F914F911B
:100520003F912F910F900FBE0F901F9018951F9223
:100530000F920FB60F9211242F933F934F935F9317
:100540006F937F938F939F93AF93BF93EF93FF939B
:10055000E0910001F09101010995FF91EF91BF91A8
:10056000AF919F918F917F916F915F914F913F914B
:100570002F910F900FBE0F901F9018951F920F9202
:100580000FB60F9211242F933F934F935F936F9366
:100590007F938F939F93AF93BF93EF93FF9387E2E4
:1005A00091E00E945001FF91EF91BF91AF919F9117
:1005B0008F917F916F915F914F913F912F910F900C
:1005C0000FBE0F901F9018951F920F920FB60F92AB
:1005D00011242F938F939F93EF93FF93E091370113
:1005E000F09138018081E0913D01F0913E0182FD62
:1005F00012C09081809140018F5F8F7320914101E3
:10060000821751F0E0914001F0E0E95DFE4F958FD7
:100610008093400101C08081FF91EF919F918F9164
:100620002F910F900FBE0F901F901895E7E2F1E009
:100630001382128288EE93E0A0E0B0E08483958379
:10064000A683B78388E091E09183808385EC90E076
:100650009587848784EC90E09787868780EC90E08C
:10066000918B808B81EC90E0938B828B82EC90E07D
:10067000958B848B86EC90E0978B868B118E128EF7
:10068000138E148E2FB7F8948091C4019091C501F8
:10069000A091C601B091C7012FBF8093C80190936C
:1006A000C901A093CA01B093CB010895CF93DF9302
:1006B000CDB7DEB7A1970FB6F894DEBF0FBECDBFA2
:1006C000789484B5826084BD84B5816084BD85B52D
:1006D000826085BD85B5816085BD80916E00816039
:1006E00080936E00109281008091810082608093DF
:1006F00081008091810081608093810080918000E1
:100700008160809380008091B10084608093B1000B
:100710008091B00081608093B00080917A00846005
:1007200080937A0080917A00826080937A00809131
:100730007A00816080937A0080917A00806880934B
:100740007A001092C10007EA10E0F801249153E901
:10075000E52E50E0F52EF7018491882399F090E082
:10076000880F991FFC01E859FF4FA591B491FC0136
:10077000EE58FF4F859194919FB7F8948C91822BFE
:100780008C939FBFE0913701F091380182E0808324
:10079000E0913301F09134011082E0913501F09144
:1007A00036018FEC808310923F01E0913B01F09184
:1007B0003C0186E08083E0913901F0913A0180812B
:1007C00080618083E0913901F0913A0180818860F5
:1007D0008083E0913901F0913A01808180688083C3
:1007E000E0913901F0913A0180818F7D80838BEE19
:1007F00091E09093010180930001809169008C7FCA
:10080000826080936900E89A2BEB222E20E0322E42
:100810003AE0432E512C612C712C0E94B50060935C
:100820001E0170931F0180932001909321012FB727
:10083000F8948091C4019091C501A091C601B09136
:10084000C7012FBF40911A0150911B0160911C01FB
:1008500070911D018090C8019090C901A090CA01BB
:10086000B090CB0188199909AA09BB09841795078B
:10087000A607B70708F44FC02FB7F8948091C401BA
:100880009091C501A091C601B091C7012FBF80937F
:10089000C8019093C901A093CA01B093CB01F101A3
:1008A0008491F801D490F701C490CC20A1F081117B
:1008B0000E948C00EC2DF0E0EE0FFF1FE458FF4F7C
:1008C000A591B4918C91D82291E080E009F490E058
:1008D000C92ED82E02C0C12CD12CF1018491F8016F
:1008E0009490F70184908820B1F081110E948C00CF
:1008F000E82DF0E0EE0FFF1FEE58FF4FA591B491E9
:100900009FB7F8948C91CD2819F09094982201C04B
:10091000982A9C929FBF0E94B50020911E013091A1
:100920001F0140912001509121015B016C01A21A2D
:10093000B30AC40AD50AA601950119A26E0181E283
:10094000C80ED11CCA01B901A30192010E94CA04B8
:10095000605DF60162936F01211531054105510576
:1009600089F7309761F001900020E9F73197AF01E6
:100970004C195D09B60187E291E00E94DB0042E07C
:1009800050E066E171E087E291E00E94DB000E94A6
:10099000E10143CFA1E21A2EAA1BBB1BFD010DC032
:1009A000AA1FBB1FEE1FFF1FA217B307E407F5071F
:1009B00020F0A21BB30BE40BF50B661F771F881FFB
:1009C000991F1A9469F760957095809590959B0191
:1009D000AC01BD01CF0108950E94FD04A59F900DBB
:1009E000B49F900DA49F800D911D11240895EE0FCA
:1009F000FF1F0590F491E02D0994A29FB001B39FD1
:100A0000C001A39F700D811D1124911DB29F700D17
:100A1000811D1124911D089581E090E0F8940C94BB
:060A20001105F894FFCF60
:100A2600DA00DA00000000007201DB000901BF01F4
:0A0A36003A0118012C010D0A00001E
:00000001FF
